{
  "fileName": "SootRegistry.sol",
  "contractName": "SootRegistry",
  "source": "// SPDX-License-Identifier: Unlicense\npragma solidity ^0.6.0;\n\nimport \"@openzeppelin/contracts-ethereum-package/contracts/access/Ownable.sol\";\nimport \"@openzeppelin/contracts-ethereum-package/contracts/Initializable.sol\";\nimport \"@openzeppelin/contracts-ethereum-package/contracts/math/SafeMath.sol\";\n\ncontract SootRegistry is Initializable, OwnableUpgradeSafe {\n    struct IncidentReport {\n        uint256 id;\n        bytes32 name;\n        bytes32 cid;\n        bool isEncrypted;\n        int256 lat;\n        int256 lon;\n        uint256 date;\n        address author;\n    }\n\n    // victim > incident\n    mapping(address => mapping(uint8 => uint256)) victimToIncidentId;\n    mapping(address => uint8) victimIncidentCount;\n\n    // molester > victim\n    mapping(bytes32 => mapping(uint8 => address)) molesterToVictim;\n    mapping(bytes32 => uint8) molesterIncidentCount;\n\n    // all incidents\n    IncidentReport[] incidents;\n    uint256 incidents_size = 0;\n\n    function initialize() public initializer {\n        __Ownable_init();\n    }\n\n    event Register(\n        uint256 id,\n        address _from,\n        bytes32 _name,\n        bytes32 _cid,\n        bool _isEncrypted,\n        int256 _lat,\n        int256 _lon,\n        uint256 _date\n    );\n\n    event RepeatedAttack(bytes32 indexed _name, address indexed _author, uint256 _date);\n\n    // ------------------------------------------------------------\n    // Core public functions\n    // ------------------------------------------------------------\n    function register(\n        string memory _name,\n        bytes32 _cid,\n        bool _isEncrypted,\n        int256 _lat,\n        int256 _lon,\n        uint256 _date\n    ) public {\n        bytes32 _transformedName = _stringToBytes32(_name);\n\n        // add to incidents store\n        incidents.push(\n            IncidentReport(\n                incidents_size,\n                _transformedName,\n                _cid,\n                _isEncrypted,\n                _lat,\n                _lon,\n                _date,\n                msg.sender\n            )\n        );\n\n        // add victimToIncidentId item\n        uint8 currentVictimIncidentCount = victimIncidentCount[msg.sender];\n        victimToIncidentId[msg\n            .sender][currentVictimIncidentCount] = incidents_size;\n        victimIncidentCount[msg.sender] = uint8(\n            SafeMath.add(currentVictimIncidentCount, 1)\n        );\n\n        // add molesterToVictim item\n\n            uint8 currentMolesterIncidentCount\n         = molesterIncidentCount[_transformedName];\n        molesterToVictim[_transformedName][currentMolesterIncidentCount] = msg\n            .sender;\n        uint8 newMolesterCount = uint8(\n            SafeMath.add(currentMolesterIncidentCount, 1)\n        );\n        molesterIncidentCount[_transformedName] = newMolesterCount;\n\n        if (newMolesterCount > 2) {\n            emit RepeatedAttack(_transformedName, msg.sender, _date);\n        }\n\n        emit Register(\n            incidents_size,\n            msg.sender,\n            _transformedName,\n            _cid,\n            _isEncrypted,\n            _lat,\n            _lon,\n            _date\n        );\n\n        // update counters\n        incidents_size++;\n    }\n\n    function updateCidOfIncident(uint256 _id, bytes32 _cid) public {\n        incidents[_id].cid = _cid;\n    }\n\n    // ------------------------------------------------------------\n    // View functions\n    // ------------------------------------------------------------\n    function getAllReportsOfVictim(address _victim)\n        public\n        view\n        returns (\n            uint256[] memory ids\n        )\n    {\n        uint8 currentVictimIncidentCount = victimIncidentCount[_victim];\n\n        ids = new uint256[](currentVictimIncidentCount);\n\n        for (uint8 i = 0; i < currentVictimIncidentCount; i++) {\n            uint256 currentIncidentId = victimToIncidentId[_victim][i];\n\n            ids[i] = currentIncidentId;\n        }\n        return (ids);\n    }\n\n    function getAllVictimsOnMolester(string memory _name)\n        public\n        view\n        returns (address[] memory victims)\n    {\n        bytes32 _transformedName = _stringToBytes32(_name);\n\n\n            uint8 currentMolesterIncidentCount\n         = molesterIncidentCount[_transformedName];\n        victims = new address[](currentMolesterIncidentCount);\n\n        for (uint8 i = 0; i < currentMolesterIncidentCount; i++) {\n            victims[i] = molesterToVictim[_transformedName][i];\n        }\n\n        return victims;\n    }\n\n    function getAllIncidents()\n        public\n        view\n        returns (\n            uint256[] memory ids,\n            bytes32[] memory names,\n            int256[] memory lats,\n            int256[] memory lons,\n            bool[] memory isEncrypteds\n        )\n    {\n        ids = new uint256[](incidents_size);\n        names = new bytes32[](incidents_size);\n        lats = new int256[](incidents_size);\n        lons = new int256[](incidents_size);\n        isEncrypteds = new bool[](incidents_size);\n\n        for (uint256 i = 0; i < incidents_size; i++) {\n            IncidentReport memory incident = incidents[i];\n            ids[i] = incident.id;\n            names[i] = incident.name;\n            lats[i] = incident.lat;\n            lons[i] = incident.lon;\n            isEncrypteds[i] = incident.isEncrypted;\n        }\n        return (ids, names, lats, lons, isEncrypteds);\n    }\n\n    function getIncident(uint256 id)\n        public\n        view\n        returns (\n            bytes32 name,\n            int256 lat,\n            int256 lon,\n            bytes32 cid,\n            bool isEncrypted,\n            uint256 date,\n            address author\n        )\n    {\n        return (\n            incidents[id].name,\n            incidents[id].lat,\n            incidents[id].lon,\n            incidents[id].cid,\n            incidents[id].isEncrypted,\n            incidents[id].date,\n            incidents[id].author\n        );\n    }\n\n    // ------------------------------------------------------------\n    // Private functions\n    // ------------------------------------------------------------\n    function _stringToBytes32(string memory source)\n        private\n        pure\n        returns (bytes32 result)\n    {\n        bytes memory tempEmptyStringTest = bytes(source);\n        if (tempEmptyStringTest.length == 0) {\n            return 0x0;\n        }\n        // solium-disable security/no-inline-assembly\n        assembly {\n            result := mload(add(source, 32))\n        }\n    }\n}\n",
  "sourcePath": "contracts/SootRegistry.sol",
  "abi": [
    {
      "anonymous": false,
      "inputs": [
        {
          "indexed": true,
          "internalType": "address",
          "name": "previousOwner",
          "type": "address"
        },
        {
          "indexed": true,
          "internalType": "address",
          "name": "newOwner",
          "type": "address"
        }
      ],
      "name": "OwnershipTransferred",
      "type": "event"
    },
    {
      "anonymous": false,
      "inputs": [
        {
          "indexed": false,
          "internalType": "uint256",
          "name": "id",
          "type": "uint256"
        },
        {
          "indexed": false,
          "internalType": "address",
          "name": "_from",
          "type": "address"
        },
        {
          "indexed": false,
          "internalType": "bytes32",
          "name": "_name",
          "type": "bytes32"
        },
        {
          "indexed": false,
          "internalType": "bytes32",
          "name": "_cid",
          "type": "bytes32"
        },
        {
          "indexed": false,
          "internalType": "bool",
          "name": "_isEncrypted",
          "type": "bool"
        },
        {
          "indexed": false,
          "internalType": "int256",
          "name": "_lat",
          "type": "int256"
        },
        {
          "indexed": false,
          "internalType": "int256",
          "name": "_lon",
          "type": "int256"
        },
        {
          "indexed": false,
          "internalType": "uint256",
          "name": "_date",
          "type": "uint256"
        }
      ],
      "name": "Register",
      "type": "event"
    },
    {
      "anonymous": false,
      "inputs": [
        {
          "indexed": true,
          "internalType": "bytes32",
          "name": "_name",
          "type": "bytes32"
        },
        {
          "indexed": true,
          "internalType": "address",
          "name": "_author",
          "type": "address"
        },
        {
          "indexed": false,
          "internalType": "uint256",
          "name": "_date",
          "type": "uint256"
        }
      ],
      "name": "RepeatedAttack",
      "type": "event"
    },
    {
      "inputs": [],
      "name": "getAllIncidents",
      "outputs": [
        {
          "internalType": "uint256[]",
          "name": "ids",
          "type": "uint256[]"
        },
        {
          "internalType": "bytes32[]",
          "name": "names",
          "type": "bytes32[]"
        },
        {
          "internalType": "int256[]",
          "name": "lats",
          "type": "int256[]"
        },
        {
          "internalType": "int256[]",
          "name": "lons",
          "type": "int256[]"
        },
        {
          "internalType": "bool[]",
          "name": "isEncrypteds",
          "type": "bool[]"
        }
      ],
      "stateMutability": "view",
      "type": "function"
    },
    {
      "inputs": [
        {
          "internalType": "address",
          "name": "_victim",
          "type": "address"
        }
      ],
      "name": "getAllReportsOfVictim",
      "outputs": [
        {
          "internalType": "uint256[]",
          "name": "ids",
          "type": "uint256[]"
        }
      ],
      "stateMutability": "view",
      "type": "function"
    },
    {
      "inputs": [
        {
          "internalType": "string",
          "name": "_name",
          "type": "string"
        }
      ],
      "name": "getAllVictimsOnMolester",
      "outputs": [
        {
          "internalType": "address[]",
          "name": "victims",
          "type": "address[]"
        }
      ],
      "stateMutability": "view",
      "type": "function"
    },
    {
      "inputs": [
        {
          "internalType": "uint256",
          "name": "id",
          "type": "uint256"
        }
      ],
      "name": "getIncident",
      "outputs": [
        {
          "internalType": "bytes32",
          "name": "name",
          "type": "bytes32"
        },
        {
          "internalType": "int256",
          "name": "lat",
          "type": "int256"
        },
        {
          "internalType": "int256",
          "name": "lon",
          "type": "int256"
        },
        {
          "internalType": "bytes32",
          "name": "cid",
          "type": "bytes32"
        },
        {
          "internalType": "bool",
          "name": "isEncrypted",
          "type": "bool"
        },
        {
          "internalType": "uint256",
          "name": "date",
          "type": "uint256"
        },
        {
          "internalType": "address",
          "name": "author",
          "type": "address"
        }
      ],
      "stateMutability": "view",
      "type": "function"
    },
    {
      "inputs": [],
      "name": "initialize",
      "outputs": [],
      "stateMutability": "nonpayable",
      "type": "function"
    },
    {
      "inputs": [],
      "name": "owner",
      "outputs": [
        {
          "internalType": "address",
          "name": "",
          "type": "address"
        }
      ],
      "stateMutability": "view",
      "type": "function"
    },
    {
      "inputs": [
        {
          "internalType": "string",
          "name": "_name",
          "type": "string"
        },
        {
          "internalType": "bytes32",
          "name": "_cid",
          "type": "bytes32"
        },
        {
          "internalType": "bool",
          "name": "_isEncrypted",
          "type": "bool"
        },
        {
          "internalType": "int256",
          "name": "_lat",
          "type": "int256"
        },
        {
          "internalType": "int256",
          "name": "_lon",
          "type": "int256"
        },
        {
          "internalType": "uint256",
          "name": "_date",
          "type": "uint256"
        }
      ],
      "name": "register",
      "outputs": [],
      "stateMutability": "nonpayable",
      "type": "function"
    },
    {
      "inputs": [],
      "name": "renounceOwnership",
      "outputs": [],
      "stateMutability": "nonpayable",
      "type": "function"
    },
    {
      "inputs": [
        {
          "internalType": "address",
          "name": "newOwner",
          "type": "address"
        }
      ],
      "name": "transferOwnership",
      "outputs": [],
      "stateMutability": "nonpayable",
      "type": "function"
    },
    {
      "inputs": [
        {
          "internalType": "uint256",
          "name": "_id",
          "type": "uint256"
        },
        {
          "internalType": "bytes32",
          "name": "_cid",
          "type": "bytes32"
        }
      ],
      "name": "updateCidOfIncident",
      "outputs": [],
      "stateMutability": "nonpayable",
      "type": "function"
    }
  ],
  "bytecode": "0x60806040526000609c5534801561001557600080fd5b50611b30806100256000396000f3fe608060405234801561001057600080fd5b506004361061009e5760003560e01c80638da5cb5b116100665780638da5cb5b146103df5780639578615e14610413578063b8121b0214610497578063c5d6570d146104cf578063f2fde38b146105be5761009e565b806321ba448d146100a35780632d7204e9146101b35780633565563714610332578063715018a6146103cb5780638129fc1c146103d5575b600080fd5b61015c600480360360208110156100b957600080fd5b81019080803590602001906401000000008111156100d657600080fd5b8201836020820111156100e857600080fd5b8035906020019184600183028401116401000000008311171561010a57600080fd5b91908080601f016020809104026020016040519081016040528093929190818152602001838380828437600081840152601f19601f820116905080830192505050505050509192919290505050610602565b6040518080602001828103825283818151815260200191508051906020019060200280838360005b8381101561019f578082015181840152602081019050610184565b505050509050019250505060405180910390f35b6101bb61073c565b60405180806020018060200180602001806020018060200186810386528b818151815260200191508051906020019060200280838360005b8381101561020e5780820151818401526020810190506101f3565b5050505090500186810385528a818151815260200191508051906020019060200280838360005b83811015610250578082015181840152602081019050610235565b50505050905001868103845289818151815260200191508051906020019060200280838360005b83811015610292578082015181840152602081019050610277565b50505050905001868103835288818151815260200191508051906020019060200280838360005b838110156102d45780820151818401526020810190506102b9565b50505050905001868103825287818151815260200191508051906020019060200280838360005b838110156103165780820151818401526020810190506102fb565b505050509050019a505050505050505050505060405180910390f35b6103746004803603602081101561034857600080fd5b81019080803573ffffffffffffffffffffffffffffffffffffffff169060200190929190505050610a53565b6040518080602001828103825283818151815260200191508051906020019060200280838360005b838110156103b757808201518184015260208101905061039c565b505050509050019250505060405180910390f35b6103d3610b8f565b005b6103dd610d1a565b005b6103e7610e20565b604051808273ffffffffffffffffffffffffffffffffffffffff16815260200191505060405180910390f35b61043f6004803603602081101561042957600080fd5b8101908080359060200190929190505050610e4a565b6040518088815260200187815260200186815260200185815260200184151581526020018381526020018273ffffffffffffffffffffffffffffffffffffffff16815260200197505050505050505060405180910390f35b6104cd600480360360408110156104ad57600080fd5b810190808035906020019092919080359060200190929190505050610f74565b005b6105bc600480360360c08110156104e557600080fd5b810190808035906020019064010000000081111561050257600080fd5b82018360208201111561051457600080fd5b8035906020019184600183028401116401000000008311171561053657600080fd5b91908080601f016020809104026020016040519081016040528093929190818152602001838380828437600081840152601f19601f82011690508083019250505050505050919291929080359060200190929190803515159060200190929190803590602001909291908035906020019092919080359060200190929190505050610f9b565b005b610600600480360360208110156105d457600080fd5b81019080803573ffffffffffffffffffffffffffffffffffffffff1690602001909291905050506113ae565b005b6060600061060f836115be565b90506000609a600083815260200190815260200160002060009054906101000a900460ff1690508060ff1667ffffffffffffffff8111801561065057600080fd5b5060405190808252806020026020018201604052801561067f5781602001602082028036833780820191505090505b50925060005b8160ff168160ff161015610734576099600084815260200190815260200160002060008260ff1660ff16815260200190815260200160002060009054906101000a900473ffffffffffffffffffffffffffffffffffffffff16848260ff16815181106106ed57fe5b602002602001019073ffffffffffffffffffffffffffffffffffffffff16908173ffffffffffffffffffffffffffffffffffffffff16815250508080600101915050610685565b505050919050565b6060806060806060609c5467ffffffffffffffff8111801561075d57600080fd5b5060405190808252806020026020018201604052801561078c5781602001602082028036833780820191505090505b509450609c5467ffffffffffffffff811180156107a857600080fd5b506040519080825280602002602001820160405280156107d75781602001602082028036833780820191505090505b509350609c5467ffffffffffffffff811180156107f357600080fd5b506040519080825280602002602001820160405280156108225781602001602082028036833780820191505090505b509250609c5467ffffffffffffffff8111801561083e57600080fd5b5060405190808252806020026020018201604052801561086d5781602001602082028036833780820191505090505b509150609c5467ffffffffffffffff8111801561088957600080fd5b506040519080825280602002602001820160405280156108b85781602001602082028036833780820191505090505b50905060005b609c54811015610a4b576108d0611a43565b609b82815481106108dd57fe5b9060005260206000209060080201604051806101000160405290816000820154815260200160018201548152602001600282015481526020016003820160009054906101000a900460ff161515151581526020016004820154815260200160058201548152602001600682015481526020016007820160009054906101000a900473ffffffffffffffffffffffffffffffffffffffff1673ffffffffffffffffffffffffffffffffffffffff1673ffffffffffffffffffffffffffffffffffffffff1681525050905080600001518783815181106109b757fe5b60200260200101818152505080602001518683815181106109d457fe5b60200260200101818152505080608001518583815181106109f157fe5b6020026020010181815250508060a00151848381518110610a0e57fe5b6020026020010181815250508060600151838381518110610a2b57fe5b6020026020010190151590811515815250505080806001019150506108be565b509091929394565b60606000609860008473ffffffffffffffffffffffffffffffffffffffff1673ffffffffffffffffffffffffffffffffffffffff16815260200190815260200160002060009054906101000a900460ff1690508060ff1667ffffffffffffffff81118015610ac057600080fd5b50604051908082528060200260200182016040528015610aef5781602001602082028036833780820191505090505b50915060005b8160ff168160ff161015610b88576000609760008673ffffffffffffffffffffffffffffffffffffffff1673ffffffffffffffffffffffffffffffffffffffff16815260200190815260200160002060008360ff1660ff16815260200190815260200160002054905080848360ff1681518110610b6e57fe5b602002602001018181525050508080600101915050610af5565b5050919050565b610b976115e9565b73ffffffffffffffffffffffffffffffffffffffff16606560009054906101000a900473ffffffffffffffffffffffffffffffffffffffff1673ffffffffffffffffffffffffffffffffffffffff1614610c59576040517f08c379a00000000000000000000000000000000000000000000000000000000081526004018080602001828103825260208152602001807f4f776e61626c653a2063616c6c6572206973206e6f7420746865206f776e657281525060200191505060405180910390fd5b600073ffffffffffffffffffffffffffffffffffffffff16606560009054906101000a900473ffffffffffffffffffffffffffffffffffffffff1673ffffffffffffffffffffffffffffffffffffffff167f8be0079c531659141344cd1fd0a4f28419497f9722a3daafe3b4186f6b6457e060405160405180910390a36000606560006101000a81548173ffffffffffffffffffffffffffffffffffffffff021916908373ffffffffffffffffffffffffffffffffffffffff160217905550565b600060019054906101000a900460ff1680610d395750610d386115f1565b5b80610d4f575060008054906101000a900460ff16155b610da4576040517f08c379a000000000000000000000000000000000000000000000000000000000815260040180806020018281038252602e815260200180611acd602e913960400191505060405180910390fd5b60008060019054906101000a900460ff161590508015610df4576001600060016101000a81548160ff02191690831515021790555060016000806101000a81548160ff0219169083151502179055505b610dfc611608565b8015610e1d5760008060016101000a81548160ff0219169083151502179055505b50565b6000606560009054906101000a900473ffffffffffffffffffffffffffffffffffffffff16905090565b6000806000806000806000609b8881548110610e6257fe5b906000526020600020906008020160010154609b8981548110610e8157fe5b906000526020600020906008020160040154609b8a81548110610ea057fe5b906000526020600020906008020160050154609b8b81548110610ebf57fe5b906000526020600020906008020160020154609b8c81548110610ede57fe5b906000526020600020906008020160030160009054906101000a900460ff16609b8d81548110610f0a57fe5b906000526020600020906008020160060154609b8e81548110610f2957fe5b906000526020600020906008020160070160009054906101000a900473ffffffffffffffffffffffffffffffffffffffff169650965096509650965096509650919395979092949650565b80609b8381548110610f8257fe5b9060005260206000209060080201600201819055505050565b6000610fa6876115be565b9050609b604051806101000160405280609c54815260200183815260200188815260200187151581526020018681526020018581526020018481526020013373ffffffffffffffffffffffffffffffffffffffff16815250908060018154018082558091505060019003906000526020600020906008020160009091909190915060008201518160000155602082015181600101556040820151816002015560608201518160030160006101000a81548160ff0219169083151502179055506080820151816004015560a0820151816005015560c0820151816006015560e08201518160070160006101000a81548173ffffffffffffffffffffffffffffffffffffffff021916908373ffffffffffffffffffffffffffffffffffffffff16021790555050506000609860003373ffffffffffffffffffffffffffffffffffffffff1673ffffffffffffffffffffffffffffffffffffffff16815260200190815260200160002060009054906101000a900460ff169050609c54609760003373ffffffffffffffffffffffffffffffffffffffff1673ffffffffffffffffffffffffffffffffffffffff16815260200190815260200160002060008360ff1660ff168152602001908152602001600020819055506111888160ff166001611716565b609860003373ffffffffffffffffffffffffffffffffffffffff1673ffffffffffffffffffffffffffffffffffffffff16815260200190815260200160002060006101000a81548160ff021916908360ff1602179055506000609a600084815260200190815260200160002060009054906101000a900460ff169050336099600085815260200190815260200160002060008360ff1660ff16815260200190815260200160002060006101000a81548173ffffffffffffffffffffffffffffffffffffffff021916908373ffffffffffffffffffffffffffffffffffffffff160217905550600061127d8260ff166001611716565b905080609a600086815260200190815260200160002060006101000a81548160ff021916908360ff16021790555060028160ff161115611307573373ffffffffffffffffffffffffffffffffffffffff16847f18dadbb8218e93333bb92973e22119a231d394fa8624abeaf51eae4b4b66df19876040518082815260200191505060405180910390a35b7f5034c6ab653fd472081b210323496a2ea31baf734c41b3a1b8c742c366fac5bb609c5433868c8c8c8c8c604051808981526020018873ffffffffffffffffffffffffffffffffffffffff16815260200187815260200186815260200185151581526020018481526020018381526020018281526020019850505050505050505060405180910390a1609c6000815480929190600101919050555050505050505050505050565b6113b66115e9565b73ffffffffffffffffffffffffffffffffffffffff16606560009054906101000a900473ffffffffffffffffffffffffffffffffffffffff1673ffffffffffffffffffffffffffffffffffffffff1614611478576040517f08c379a00000000000000000000000000000000000000000000000000000000081526004018080602001828103825260208152602001807f4f776e61626c653a2063616c6c6572206973206e6f7420746865206f776e657281525060200191505060405180910390fd5b600073ffffffffffffffffffffffffffffffffffffffff168173ffffffffffffffffffffffffffffffffffffffff1614156114fe576040517f08c379a0000000000000000000000000000000000000000000000000000000008152600401808060200182810382526026815260200180611aa76026913960400191505060405180910390fd5b8073ffffffffffffffffffffffffffffffffffffffff16606560009054906101000a900473ffffffffffffffffffffffffffffffffffffffff1673ffffffffffffffffffffffffffffffffffffffff167f8be0079c531659141344cd1fd0a4f28419497f9722a3daafe3b4186f6b6457e060405160405180910390a380606560006101000a81548173ffffffffffffffffffffffffffffffffffffffff021916908373ffffffffffffffffffffffffffffffffffffffff16021790555050565b600060608290506000815114156115db576000801b9150506115e4565b60208301519150505b919050565b600033905090565b6000803090506000813b9050600081149250505090565b600060019054906101000a900460ff168061162757506116266115f1565b5b8061163d575060008054906101000a900460ff16155b611692576040517f08c379a000000000000000000000000000000000000000000000000000000000815260040180806020018281038252602e815260200180611acd602e913960400191505060405180910390fd5b60008060019054906101000a900460ff1615905080156116e2576001600060016101000a81548160ff02191690831515021790555060016000806101000a81548160ff0219169083151502179055505b6116ea61179e565b6116f261189c565b80156117135760008060016101000a81548160ff0219169083151502179055505b50565b600080828401905083811015611794576040517f08c379a000000000000000000000000000000000000000000000000000000000815260040180806020018281038252601b8152602001807f536166654d6174683a206164646974696f6e206f766572666c6f77000000000081525060200191505060405180910390fd5b8091505092915050565b600060019054906101000a900460ff16806117bd57506117bc6115f1565b5b806117d3575060008054906101000a900460ff16155b611828576040517f08c379a000000000000000000000000000000000000000000000000000000000815260040180806020018281038252602e815260200180611acd602e913960400191505060405180910390fd5b60008060019054906101000a900460ff161590508015611878576001600060016101000a81548160ff02191690831515021790555060016000806101000a81548160ff0219169083151502179055505b80156118995760008060016101000a81548160ff0219169083151502179055505b50565b600060019054906101000a900460ff16806118bb57506118ba6115f1565b5b806118d1575060008054906101000a900460ff16155b611926576040517f08c379a000000000000000000000000000000000000000000000000000000000815260040180806020018281038252602e815260200180611acd602e913960400191505060405180910390fd5b60008060019054906101000a900460ff161590508015611976576001600060016101000a81548160ff02191690831515021790555060016000806101000a81548160ff0219169083151502179055505b60006119806115e9565b905080606560006101000a81548173ffffffffffffffffffffffffffffffffffffffff021916908373ffffffffffffffffffffffffffffffffffffffff1602179055508073ffffffffffffffffffffffffffffffffffffffff16600073ffffffffffffffffffffffffffffffffffffffff167f8be0079c531659141344cd1fd0a4f28419497f9722a3daafe3b4186f6b6457e060405160405180910390a3508015611a405760008060016101000a81548160ff0219169083151502179055505b50565b604051806101000160405280600081526020016000801916815260200160008019168152602001600015158152602001600081526020016000815260200160008152602001600073ffffffffffffffffffffffffffffffffffffffff168152509056fe4f776e61626c653a206e6577206f776e657220697320746865207a65726f2061646472657373436f6e747261637420696e7374616e63652068617320616c7265616479206265656e20696e697469616c697a6564a2646970667358221220cbb993b567c349a74e703e15d18735e128e06e6e8bb2218474883e1eabc8ee0264736f6c634300060c0033",
  "compiler": {
    "name": "solc",
    "version": "0.6.12+commit.27d51765.Emscripten.clang",
    "optimizer": {
      "enabled": false,
      "runs": 200
    },
    "evmVersion": "petersburg"
  }
}