{
  "fileName": "SootRegistry.sol",
  "contractName": "SootRegistry",
  "source": "// SPDX-License-Identifier: Unlicense\npragma solidity ^0.6.0;\n\nimport \"@openzeppelin/contracts/math/SafeMath.sol\";\nimport \"./SootToken.sol\";\n\ncontract SootRegistry {\n    struct IncidentReport {\n        uint256 id;\n        bytes32 name;\n        bool isEncrypted;\n        int256 latitude;\n        int256 longitude;\n        uint256 date;\n        address author;\n    }\n\n    event Register(\n        uint256 id,\n        address _from,\n        bytes32 _name,\n        string _cid,\n        bool _isEncrypted,\n        int256 _latitude,\n        int256 _longitude,\n        uint256 _date\n    );\n\n    // victim > incident\n    mapping(address => mapping(uint256 => uint256)) victimToTokenId;\n\n    // molester > victim\n    mapping(bytes32 => mapping(uint8 => address)) molesterToVictim;\n    mapping(bytes32 => uint8) molesterIncidentCount;\n\n    // all incidents\n    mapping(uint256 => IncidentReport) tokenIdToIncident;\n    // IncidentReport[] incidents;\n    SootToken deployedToken;\n\n    constructor(address _tokenDeployedAddress) public {\n        deployedToken = SootToken(\n            _tokenDeployedAddress\n        );\n    }\n\n    event RepeatedAttack(bytes32 indexed _name, address indexed _author, uint256 _date);\n\n    // ------------------------------------------------------------\n    // Core public functions\n    // ------------------------------------------------------------\n    function register(\n        string memory _name,\n        string memory _cid,\n        bool _isEncrypted,\n        int256 _latitude,\n        int256 _longitude,\n        uint256 _date\n    ) public {\n        bytes32 _transformedName = _stringToBytes32(_name);\n\n        uint tokenId = deployedToken.getCurrentTokenId();\n        victimToTokenId[msg.sender][getTokenCount()] = tokenId;\n        deployedToken.mintToken(msg.sender, tokenId, _cid);\n        // add to incidents store\n        tokenIdToIncident[tokenId]=IncidentReport(\n                tokenId,\n                _transformedName,\n                _isEncrypted,\n                _latitude,\n                _longitude,\n                _date,\n                msg.sender\n            ) ;\n\n        // add molesterToVictim item\n        uint8 currentMolesterIncidentCount\n         = molesterIncidentCount[_transformedName];\n        molesterToVictim[_transformedName][currentMolesterIncidentCount] = msg\n            .sender;\n        uint8 newMolesterCount = uint8(\n            SafeMath.add(currentMolesterIncidentCount, 1)\n        );\n        molesterIncidentCount[_transformedName] = newMolesterCount;\n\n        if (newMolesterCount > 2) {\n            emit RepeatedAttack(_transformedName, msg.sender, _date);\n        }\n\n        emit Register(\n            tokenId,\n            msg.sender,\n            _transformedName,\n            _cid,\n            _isEncrypted,\n            _latitude,\n            _longitude,\n            _date\n        );\n    }\n\n    // ------------------------------------------------------------\n    // View functions\n    // ------------------------------------------------------------\n    function getAllReports()\n        public\n        view\n        returns (\n            uint256[] memory ids\n        )\n    {\n        uint256 currentVictimIncidentCount = getTokenCount();\n\n        ids = new uint256[](currentVictimIncidentCount);\n\n        for (uint256 i = 0; i < currentVictimIncidentCount; i++) {\n            uint256 currentIncidentId = victimToTokenId[msg.sender][i];\n            ids[i] = currentIncidentId;\n        }\n        return (ids);\n    }\n\n    function getAllVictimsOnMolester(string memory _name)\n        public\n        view\n        returns (address[] memory victims)\n    {\n        bytes32 _transformedName = _stringToBytes32(_name);\n\n\n            uint8 currentMolesterIncidentCount\n         = molesterIncidentCount[_transformedName];\n        victims = new address[](currentMolesterIncidentCount);\n\n        for (uint8 i = 0; i < currentMolesterIncidentCount; i++) {\n            victims[i] = molesterToVictim[_transformedName][i];\n        }\n\n        return victims;\n    }\n\n    function getIncident(uint256 tokenId)\n        public\n        view\n        returns (\n            bytes32 name,\n            int256 latitude,\n            int256 longitude,\n            bool isEncrypted,\n            uint256 date,\n            address author,\n            string memory cid\n        )\n    {\n        IncidentReport memory item = tokenIdToIncident[tokenId];\n        string memory tokenURI = deployedToken.tokenURI(tokenId);\n\n        return (\n            item.name,\n            item.latitude,\n            item.longitude,\n            item.isEncrypted,\n            item.date,\n            item.author,\n            tokenURI\n        );\n    }\n\n    function getTokenCount() public view returns (uint) {\n        return deployedToken.balanceOf(msg.sender);\n    }\n\n    // ------------------------------------------------------------\n    // Private functions\n    // ------------------------------------------------------------\n    function _stringToBytes32(string memory source)\n        private\n        pure\n        returns (bytes32 result)\n    {\n        bytes memory tempEmptyStringTest = bytes(source);\n        if (tempEmptyStringTest.length == 0) {\n            return 0x0;\n        }\n        // solium-disable security/no-inline-assembly\n        assembly {\n            result := mload(add(source, 32))\n        }\n    }\n}\n",
  "sourcePath": "contracts/SootRegistry.sol",
  "abi": [
    {
      "inputs": [
        {
          "internalType": "address",
          "name": "_tokenDeployedAddress",
          "type": "address"
        }
      ],
      "stateMutability": "nonpayable",
      "type": "constructor"
    },
    {
      "anonymous": false,
      "inputs": [
        {
          "indexed": false,
          "internalType": "uint256",
          "name": "id",
          "type": "uint256"
        },
        {
          "indexed": false,
          "internalType": "address",
          "name": "_from",
          "type": "address"
        },
        {
          "indexed": false,
          "internalType": "bytes32",
          "name": "_name",
          "type": "bytes32"
        },
        {
          "indexed": false,
          "internalType": "string",
          "name": "_cid",
          "type": "string"
        },
        {
          "indexed": false,
          "internalType": "bool",
          "name": "_isEncrypted",
          "type": "bool"
        },
        {
          "indexed": false,
          "internalType": "int256",
          "name": "_latitude",
          "type": "int256"
        },
        {
          "indexed": false,
          "internalType": "int256",
          "name": "_longitude",
          "type": "int256"
        },
        {
          "indexed": false,
          "internalType": "uint256",
          "name": "_date",
          "type": "uint256"
        }
      ],
      "name": "Register",
      "type": "event"
    },
    {
      "anonymous": false,
      "inputs": [
        {
          "indexed": true,
          "internalType": "bytes32",
          "name": "_name",
          "type": "bytes32"
        },
        {
          "indexed": true,
          "internalType": "address",
          "name": "_author",
          "type": "address"
        },
        {
          "indexed": false,
          "internalType": "uint256",
          "name": "_date",
          "type": "uint256"
        }
      ],
      "name": "RepeatedAttack",
      "type": "event"
    },
    {
      "inputs": [],
      "name": "getAllReports",
      "outputs": [
        {
          "internalType": "uint256[]",
          "name": "ids",
          "type": "uint256[]"
        }
      ],
      "stateMutability": "view",
      "type": "function"
    },
    {
      "inputs": [
        {
          "internalType": "string",
          "name": "_name",
          "type": "string"
        }
      ],
      "name": "getAllVictimsOnMolester",
      "outputs": [
        {
          "internalType": "address[]",
          "name": "victims",
          "type": "address[]"
        }
      ],
      "stateMutability": "view",
      "type": "function"
    },
    {
      "inputs": [
        {
          "internalType": "uint256",
          "name": "tokenId",
          "type": "uint256"
        }
      ],
      "name": "getIncident",
      "outputs": [
        {
          "internalType": "bytes32",
          "name": "name",
          "type": "bytes32"
        },
        {
          "internalType": "int256",
          "name": "latitude",
          "type": "int256"
        },
        {
          "internalType": "int256",
          "name": "longitude",
          "type": "int256"
        },
        {
          "internalType": "bool",
          "name": "isEncrypted",
          "type": "bool"
        },
        {
          "internalType": "uint256",
          "name": "date",
          "type": "uint256"
        },
        {
          "internalType": "address",
          "name": "author",
          "type": "address"
        },
        {
          "internalType": "string",
          "name": "cid",
          "type": "string"
        }
      ],
      "stateMutability": "view",
      "type": "function"
    },
    {
      "inputs": [],
      "name": "getTokenCount",
      "outputs": [
        {
          "internalType": "uint256",
          "name": "",
          "type": "uint256"
        }
      ],
      "stateMutability": "view",
      "type": "function"
    },
    {
      "inputs": [
        {
          "internalType": "string",
          "name": "_name",
          "type": "string"
        },
        {
          "internalType": "string",
          "name": "_cid",
          "type": "string"
        },
        {
          "internalType": "bool",
          "name": "_isEncrypted",
          "type": "bool"
        },
        {
          "internalType": "int256",
          "name": "_latitude",
          "type": "int256"
        },
        {
          "internalType": "int256",
          "name": "_longitude",
          "type": "int256"
        },
        {
          "internalType": "uint256",
          "name": "_date",
          "type": "uint256"
        }
      ],
      "name": "register",
      "outputs": [],
      "stateMutability": "nonpayable",
      "type": "function"
    }
  ],
  "bytecode": "0x608060405234801561001057600080fd5b506040516110cc3803806110cc8339818101604052602081101561003357600080fd5b810190808051906020019092919050505080600460006101000a81548173ffffffffffffffffffffffffffffffffffffffff021916908373ffffffffffffffffffffffffffffffffffffffff16021790555050611037806100956000396000f3fe608060405234801561001057600080fd5b50600436106100575760003560e01c806321ba448d1461005c57806378a895671461016c5780639578615e1461018a578063aa8d08e514610273578063f3d3ddfa146103ef575b600080fd5b6101156004803603602081101561007257600080fd5b810190808035906020019064010000000081111561008f57600080fd5b8201836020820111156100a157600080fd5b803590602001918460018302840111640100000000831117156100c357600080fd5b91908080601f016020809104026020016040519081016040528093929190818152602001838380828437600081840152601f19601f82011690508083019250505050505050919291929050505061044e565b6040518080602001828103825283818151815260200191508051906020019060200280838360005b8381101561015857808201518184015260208101905061013d565b505050509050019250505060405180910390f35b610174610588565b6040518082815260200191505060405180910390f35b6101b6600480360360208110156101a057600080fd5b8101908080359060200190929190505050610653565b6040518088815260200187815260200186815260200185151581526020018481526020018373ffffffffffffffffffffffffffffffffffffffff16815260200180602001828103825283818151815260200191508051906020019080838360005b83811015610232578082015181840152602081019050610217565b50505050905090810190601f16801561025f5780820380516001836020036101000a031916815260200191505b509850505050505050505060405180910390f35b6103ed600480360360c081101561028957600080fd5b81019080803590602001906401000000008111156102a657600080fd5b8201836020820111156102b857600080fd5b803590602001918460018302840111640100000000831117156102da57600080fd5b91908080601f016020809104026020016040519081016040528093929190818152602001838380828437600081840152601f19601f8201169050808301925050505050505091929192908035906020019064010000000081111561033d57600080fd5b82018360208201111561034f57600080fd5b8035906020019184600183028401116401000000008311171561037157600080fd5b91908080601f016020809104026020016040519081016040528093929190818152602001838380828437600081840152601f19601f8201169050808301925050505050505091929192908035151590602001909291908035906020019092919080359060200190929190803590602001909291905050506108d3565b005b6103f7610e14565b6040518080602001828103825283818151815260200191508051906020019060200280838360005b8381101561043a57808201518184015260208101905061041f565b505050509050019250505060405180910390f35b6060600061045b83610ef6565b905060006002600083815260200190815260200160002060009054906101000a900460ff1690508060ff1667ffffffffffffffff8111801561049c57600080fd5b506040519080825280602002602001820160405280156104cb5781602001602082028036833780820191505090505b50925060005b8160ff168160ff161015610580576001600084815260200190815260200160002060008260ff1660ff16815260200190815260200160002060009054906101000a900473ffffffffffffffffffffffffffffffffffffffff16848260ff168151811061053957fe5b602002602001019073ffffffffffffffffffffffffffffffffffffffff16908173ffffffffffffffffffffffffffffffffffffffff168152505080806001019150506104d1565b505050919050565b6000600460009054906101000a900473ffffffffffffffffffffffffffffffffffffffff1673ffffffffffffffffffffffffffffffffffffffff166370a08231336040518263ffffffff1660e01b8152600401808273ffffffffffffffffffffffffffffffffffffffff16815260200191505060206040518083038186803b15801561061357600080fd5b505afa158015610627573d6000803e3d6000fd5b505050506040513d602081101561063d57600080fd5b8101908080519060200190929190505050905090565b6000806000806000806060610666610fa9565b600360008a81526020019081526020016000206040518060e001604052908160008201548152602001600182015481526020016002820160009054906101000a900460ff161515151581526020016003820154815260200160048201548152602001600582015481526020016006820160009054906101000a900473ffffffffffffffffffffffffffffffffffffffff1673ffffffffffffffffffffffffffffffffffffffff1673ffffffffffffffffffffffffffffffffffffffff168152505090506060600460009054906101000a900473ffffffffffffffffffffffffffffffffffffffff1673ffffffffffffffffffffffffffffffffffffffff1663c87b56dd8b6040518263ffffffff1660e01b81526004018082815260200191505060006040518083038186803b15801561079e57600080fd5b505afa1580156107b2573d6000803e3d6000fd5b505050506040513d6000823e3d601f19601f8201168201806040525060208110156107dc57600080fd5b81019080805160405193929190846401000000008211156107fc57600080fd5b8382019150602082018581111561081257600080fd5b825186600182028301116401000000008211171561082f57600080fd5b8083526020830192505050908051906020019080838360005b83811015610863578082015181840152602081019050610848565b50505050905090810190601f1680156108905780820380516001836020036101000a031916815260200191505b50604052505050905081602001518260600151836080015184604001518560a001518660c001518698509850985098509850985098505050919395979092949650565b60006108de87610ef6565b90506000600460009054906101000a900473ffffffffffffffffffffffffffffffffffffffff1673ffffffffffffffffffffffffffffffffffffffff1663561892366040518163ffffffff1660e01b815260040160206040518083038186803b15801561094a57600080fd5b505afa15801561095e573d6000803e3d6000fd5b505050506040513d602081101561097457600080fd5b81019080805190602001909291905050509050806000803373ffffffffffffffffffffffffffffffffffffffff1673ffffffffffffffffffffffffffffffffffffffff16815260200190815260200160002060006109d0610588565b815260200190815260200160002081905550600460009054906101000a900473ffffffffffffffffffffffffffffffffffffffff1673ffffffffffffffffffffffffffffffffffffffff1663f76e8ba933838a6040518463ffffffff1660e01b8152600401808473ffffffffffffffffffffffffffffffffffffffff16815260200183815260200180602001828103825283818151815260200191508051906020019080838360005b83811015610a94578082015181840152602081019050610a79565b50505050905090810190601f168015610ac15780820380516001836020036101000a031916815260200191505b50945050505050600060405180830381600087803b158015610ae257600080fd5b505af1158015610af6573d6000803e3d6000fd5b505050506040518060e0016040528082815260200183815260200187151581526020018681526020018581526020018481526020013373ffffffffffffffffffffffffffffffffffffffff1681525060036000838152602001908152602001600020600082015181600001556020820151816001015560408201518160020160006101000a81548160ff021916908315150217905550606082015181600301556080820151816004015560a0820151816005015560c08201518160060160006101000a81548173ffffffffffffffffffffffffffffffffffffffff021916908373ffffffffffffffffffffffffffffffffffffffff16021790555090505060006002600084815260200190815260200160002060009054906101000a900460ff169050336001600085815260200190815260200160002060008360ff1660ff16815260200190815260200160002060006101000a81548173ffffffffffffffffffffffffffffffffffffffff021916908373ffffffffffffffffffffffffffffffffffffffff1602179055506000610c928260ff166001610f21565b9050806002600086815260200190815260200160002060006101000a81548160ff021916908360ff16021790555060028160ff161115610d1c573373ffffffffffffffffffffffffffffffffffffffff16847f18dadbb8218e93333bb92973e22119a231d394fa8624abeaf51eae4b4b66df19876040518082815260200191505060405180910390a35b7fef1072030104d883bc9a669c7f758b3c63d199d069812a798531dd37a5e8698a8333868c8c8c8c8c604051808981526020018873ffffffffffffffffffffffffffffffffffffffff168152602001878152602001806020018615158152602001858152602001848152602001838152602001828103825287818151815260200191508051906020019080838360005b83811015610dc7578082015181840152602081019050610dac565b50505050905090810190601f168015610df45780820380516001836020036101000a031916815260200191505b50995050505050505050505060405180910390a150505050505050505050565b60606000610e20610588565b90508067ffffffffffffffff81118015610e3957600080fd5b50604051908082528060200260200182016040528015610e685781602001602082028036833780820191505090505b50915060005b81811015610ef15760008060003373ffffffffffffffffffffffffffffffffffffffff1673ffffffffffffffffffffffffffffffffffffffff168152602001908152602001600020600083815260200190815260200160002054905080848381518110610ed757fe5b602002602001018181525050508080600101915050610e6e565b505090565b60006060829050600081511415610f13576000801b915050610f1c565b60208301519150505b919050565b600080828401905083811015610f9f576040517f08c379a000000000000000000000000000000000000000000000000000000000815260040180806020018281038252601b8152602001807f536166654d6174683a206164646974696f6e206f766572666c6f77000000000081525060200191505060405180910390fd5b8091505092915050565b6040518060e001604052806000815260200160008019168152602001600015158152602001600081526020016000815260200160008152602001600073ffffffffffffffffffffffffffffffffffffffff168152509056fea26469706673582212200e9df8b01e45655c7f41fc48a78a6258a837238e2d2ba66b5e6658e926bef96364736f6c634300060c0033",
  "compiler": {
    "name": "solc",
    "version": "0.6.12+commit.27d51765.Emscripten.clang",
    "optimizer": {
      "enabled": false,
      "runs": 200
    },
    "evmVersion": "petersburg"
  }
}